S0130000466972652053797374656D2E73726563E6
S11300000C946A000C943F080C9468080C949508AE
S11300100C9487000C9487000C9487000C94870040
S11300200C9487000C9487000C9487000C94870030
S11300300C9487000C9487000C9487000C94870020
S11300400C9487000C94A0070C9487000C948700F0
S11300500C948700CD06CF06D106D306D506D70665
S1130060D906DB06DD06DF06E106E306E506E7065C
S1130070E906EB06ED06EF06F106F306F506F706CC
S1130080F906FB06FD06FF06010703070507070738
S113009009070B07170719071B071D071F07210768
S11300A023072507270729072B072D072F073107C4
S11300B033073507370739073B073D073F07410734
S11300C043074507470749074B074D074F075107A4
S11300D05307550711241FBECFE5D8E0DEBFCDBFBF
S11300E011E0A0E6B0E0E8E1F3E102C005900D9272
S11300F0A836B107D9F721E0A8E6B1E001C01D9206
S1130100AA37B207E1F70E945E020C948A090C94A4
S11301100000DF92EF92FF920F931F93CF93DF9330
S113012061E088E00E94BD0661E089E00E94BD06AE
S113013061E08AE00E94BD0661E08BE00E94BD069A
S113014096E6E92E90E0F92EC8E0DEE460E08C2F1C
S11301500E94BD0600E010E08CE0D82ED00E8D2D5C
S11301600E946707811109C0F701E00FF11FD081D8
S11301708D2D0E9467078823D9F30F5F1F4F04302A
S1130180110551F761E08C2F0E94BD06CF5F84E01A
S1130190E80EF11CCC30D1F68D2FDF91CF911F9159
S11301A00F91FF90EF90DF900895CF93C82F60E0F8
S11301B088E10E94BD066C2F82E00E94570761E02F
S11301C089E10E94BD068FEC97E00197F1F700C02A
S11301D0000060E089E10E94BD068FEC97E0019782
S11301E0F1F700C00000CF910895CF93C82F61E0CC
S11301F088E10E94BD066C2F82E00E94570761E0EF
S113020089E10E94BD068FEC97E00197F1F700C0E9
S1130210000060E089E10E94BD068FEC97E0019741
S1130220F1F700C00000CF9108952FE788E391E033
S1130230215080409040E1F700C0000088E30E9414
S1130240D5008EE00E94D50081E00E94D5008FEC9D
S113025097E00197F1F700C0000086E00C94D50008
S11302600C94F5000F931F93CF938C01C0E0F80119
S1130270EC0FF11D8081882321F00E94F500CF5FEF
S1130280F6CFCF911F910F910895AC0190E0FA0140
S1130290E90FF11D8081882311F09F5FF8CF2FEFC4
S11302A0290FFA019695822F891B281749F090810E
S11302B0DA01A20FB11D3C9131939C932150F5CFEB
S11302C008954F925F926F927F928F929F92BF9206
S11302D0CF92DF92EF92FF920F931F93CF93DF930E
S11302E0CDB7DEB764970FB6F894DEBF0FBECDBFAF
S11302F06B017C018E010F5F1F4F84E1F8011192A5
S11303008A95E9F7C114D104E104F10421F480E3EE
S11303100E94F50031C0F7FE0BC0F094E094D09435
S1130320C094C11CD11CE11CF11C8DE20E94F5009B
S1130330B12C8AE0482E512C612C712C48018B0C75
S1130340911CC701B601A30192010E945609605D88
S1130350F401608369017A01B394C114D104E10406
S1130360F10461F7F801EB0DF11D1082C8010E9440
S11303704501C8010E94320164960FB6F894DEBFAD
S11303800FBECDBFDF91CF911F910F91FF90EF90E2
S1130390DF90CF90BF909F908F907F906F905F90F1
S11303A04F900895811102C080E803C0813021F488
S11303B080EC860F0C94D500089581E00C94D50050
S11303C061E08CE10E94BD0660E08DE10C94BD0605
S11303D060E08CE10E94BD0660E08DE10C94BD06F6
S11303E080E00E948E059C01ACEDB5E00E947B0983
S11303F024E331E040E050E00E943409C90108954B
S113040085E00E948E059C0127533109A8EEB3E0D4
S11304100E947B0929E933E040E050E00E9434095E
S1130420C9018A569F4F0895EF92FF920F931F932D
S1130430CF93DF93EC017B0160E080E00E94D20166
S113044086E790E00E94320163E280E00E94D201DC
S113045082E890E00E94320160E081E00E94D201D3
S11304600AE010E0CE01B8010E942009EC0180E00E
S113047090E00E9461018EE20E943001BE0180E0A2
S113048090E00E94610163E281E00E94D201C70111
S1130490B8010E942009EC0180E090E00E94610113
S11304A08EE20E943001BE0180E090E0DF91CF91A6
S11304B01F910F91FF90EF900C94610178940E942A
S11304C0AA060E94150166E081E00E94780580E09A
S11304D00E94DE0762E080E00E94EE0769E674E0B5
S11304E080E00E94C90780916000909161000E94A1
S11304F099078F3F09F065C060E080E00E94D20157
S113050088E890E00E94320160E081E00E94D2011C
S113051084E990E00E9432012FEF89E698E12150AE
S113052080409040E1F700C000000E94DD0181EAB4
S113053090E00E94320160E081E00E94D201C0E0BC
S113054000E010E02AE0F22E0E948900D82F80ED0E
S11305508D0F8A3010F5F09EC001F19E900D11248C
S11305608C010D0F111D005311096C2F81E00E94A5
S1130570D2018D2F0E9430012FEF82E597E02150A8
S113058080409040E1F700C000006C2F81E00E94A1
S1130590D2018AE20E943001CF5FC430A8F21093E6
S11305A071010093700161E080916000909161009D
S11305B00E948B0760E080916400909165000E9426
S11305C08B0780916400909165000E9499078111C6
S11305D012C0609170017091710180916E019091CF
S11305E06F010E94C20861E08091640090916500EF
S11305F00E948B0712C080916400909165000E9454
S11306009907813051F480916E0190916F010E949D
S1130610E70890937101809370018091620090913A
S113062063000E94990780936901F12C9AE0C92E16
S11306300E94F00190936D0180936C010E9400026E
S1130640BC0190936B0180936A0180916C0190913D
S11306506D019C012159314021333105A8F4809169
S11306606901882309F44FC0F11002C00E94DD0122
S113067060916A0170916B0180916C0190916D01A0
S11306800E941402F3943FC0813921E09207C8F418
S1130690643F21E07207B8F520916901222399F1A2
S11306A00E94140261E181E00E94D2018AEA90E092
S11306B00E9432010E94E80160E08EE10E94BD06C2
S11306C022C0823C9140F8F0643F7140E0F4809194
S11306D069018823C1F00E94E00161E08EE10E947B
S11306E0BD0660916A0170916B0180916C019091DB
S11306F06D010E94140261E181E00E94D2018FEA3F
S113070090E00E94320180916A0190916B018732DE
S1130710924020F48091690181118ACF60E0809138
S11307206200909163000E948B07F89480916901A4
S1130730882341F10E94E00161E08FE10E94BD063F
S113074060E08EE10E94BD060E94DD016AE081E066
S11307500E94D20184EB90E00E9432018FEF99E66F
S113076028E1815090402040E1F700C000006091F2
S11307706A0170916B0180916C0190916D010E94EE
S113078014021EC00E94DD016AE081E00E94D201D1
S113079084EB90E00AC0C430B9F40E94DD016CE03F
S11307A080E00E94D2018FED90E00E9432018FEF31
S11307B099E628E1815090402040E1F700C0000014
S11307C0D0E0C0E000E010E00E94F00190936D01E1
S11307D080936C010E94000290936B0180936A01E4
S11307E0BC0180916C0190916D010E941402809172
S11307F06A0190916B01843F914018F0D13009F067
S113080052C00E94E80160E08FE10E94BD06D11150
S11308100BC00E94DD016CE080E00E94D20188ECF4
S113082090E00E943201D1E0809168018130C9F5E5
S113083080916E0190916F010E94E708909371017D
S113084080937001109268012CC00E948900E82EE8
S113085080ED8E0D8A3028F5C09EC001C19E900D9A
S113086011248C01005311090E0D111D8DE0D82E99
S1130870DC0E6D2D81E00E94D2018E2D0E9430018C
S11308808FEF92E527E0815090402040E1F700C0CF
S113089000006D2D81E00E94D2018AE20E943001A5
S11308A0CF5FC43090F2809170019091710108176C
S11308B0190709F070CF0E94DD01789461E08091FE
S11308C06200909163000E948B0781E0809369012C
S11308D0AFCEDF92EF92FF920F931F93CF93DF93EC
S11308E00E94DD0165E080E00E94D2018EEE90E07E
S11308F00E94320160E081E00E94D20163E070E076
S113090080E090E00E946101D3E03AE0D32E00E061
S113091010E0C0E00E948900F82E80ED8F0D8A302F
S113092028F520E1E22EEC0E6E2D81E00E94D2012A
S11309308F2D0E9430012FEF82E597E021508040F7
S11309409040E1F700C000006E2D81E00E94D201CA
S11309508AE20E943001D09EC001D19E900D1124E4
S11309608C010F0D111D00531109CF5FC43090F29B
S113097080917001909171010817190709F460C002
S11309800E94DD012FEF84E39CE0215080409040E1
S1130990E1F700C000006CE080E00E94D2018FED1E
S11309A090E00E9432012FEF89E698E121508040C7
S11309B09040E1F700C0000065E080E00E94D201B1
S11309C08EEE90E00E94320160E081E00E94D2014C
S11309D0D1506D2F70E080E090E00E946101D11150
S11309E096CF0E94DD012FEF84E39CE021508040EC
S11309F09040E1F700C0000065E080E00E94D20171
S1130A008CE091E00E9432012FEF89E698E12150B9
S1130A1080409040E1F700C000000E94DD01609139
S1130A206A0170916B0180916C0190916D01DF916D
S1130A30CF911F910F91FF90EF90DF900C941402CF
S1130A400E94DD0165E080E00E94D2018AE291E02B
S1130A500E9432012FEF84E39CE0215080409040BB
S1130A60E1F700C0000081E08093680161E08091BB
S1130A706400909165000E948B0700E010E0C0E0E4
S1130A808AE0E82E0E948900D82F80ED8D0F8A30ED
S1130A9028F590E1F92EFC0E6F2D81E00E94D20121
S1130AA08D2F0E9430012FEF82E597E02150804086
S1130AB09040E1F700C000006F2D81E00E94D20158
S1130AC08AE20E943001E09EC001E19E900D112453
S1130AD08C010D0F111D00531109CF5FC43090F22A
S1130AE0B80180916E0190916F010E94C20895CF68
S1130AF0813041F028F0823039F43E9A3F9A04C0A4
S1130B003E9801C03E9A3F9886B1887F86B986B1E7
S1130B106770682B66B93D98379A089597B1907EAF
S1130B2097B997B1892B87B9369A2FEF80E792E06E
S1130B30215080409040E1F700C0000084B195B19D
S1130B400895613009F457C020F0623009F4ABC055
S1130B500895883080F44AB321E030E0B90102C03E
S1130B60660F771F8A95E2F7CB01942F982B9ABBD7
S1130B709BB3809551C098EF980F983088F447B391
S1130B80877021E030E0B90102C0660F771F8A95B3
S1130B90E2F7CB01942F982B97BB98B3809553C061
S1130BA090EF980F983088F444B3877021E030E0D8
S1130BB0B90102C0660F771F8A95E2F7CB01942F23
S1130BC0982B94BB95B3809555C098EE980F9830A8
S1130BD008F0BFC041B3877021E030E0B90102C022
S1130BE0660F771F8A95E2F7CB01942F982B91BB60
S1130BF092B3809556C0883090F44AB321E030E037
S1130C00B90102C0660F771F8A95E2F7CB01809580
S1130C10942F98239ABB9BB389238BBB089598EF99
S1130C20980F983098F447B3877021E030E0B90109
S1130C3002C0660F771F8A95E2F7CB018095942F47
S1130C40982397BB98B3892388BB089590EF980F96
S1130C50983090F444B3877021E030E0B90102C0C9
S1130C60660F771F8A95E2F7CB018095942F98231E
S1130C7094BB95B3892355C098EE980F983008F02B
S1130C8068C041B3877021E030E0B90102C0660F4B
S1130C90771F8A95E2F7CB018095942F982391BB17
S1130CA092B3892355C0883088F44AB321E030E0F8
S1130CB0B90102C0660F771F8A95E2F7CB01962F20
S1130CC0909594239ABB9BB3892BA7CF98EF980F49
S1130CD0983090F447B3877021E030E0B90102C046
S1130CE0660F771F8A95E2F7CB01962F9095942390
S1130CF097BB98B3892BA8CF90EF980F983098F4AE
S1130D0044B3877021E030E0B90102C0660F771F59
S1130D108A95E2F7CB01962F9095942394BB95B3D3
S1130D20892B85BB089598EE980F983090F441B3C1
S1130D30877021E030E0B90102C0660F771F8A9501
S1130D40E2F7CB01962F9095942391BB92B3892B14
S1130D5082BB08950F931F93CF9308E411E0C0E082
S1130D60F80161918F018C2F0E94A105CF5FC032E1
S1130D70B9F7CF911F910F910895662309F44DC0DF
S1130D80613009F093C090E08032910508F08EC084
S1130D90FC01E65DFF4F0C947509D89A0895D99A21
S1130DA00895DA9A0895DB9A0895DC9A0895DD9AF5
S1130DB00895DE9A0895DF9A0895C09A0895C19A15
S1130DC00895C29A0895C39A0895C49A0895C59A35
S1130DD00895C69A0895C79A0895A89A0895A99A55
S1130DE00895AA9A0895AB9A0895AC9A0895AD9A75
S1130DF00895AE9A0895A79A0895909A0895919A9D
S1130E000895929A0895939A0895949A0895959AB4
S1130E100895969A0895979A089590E080329105DE
S1130E2008F044C0FC01E65BFF4F0C947509D898A8
S1130E300895D9980895DA980895DB980895DC9870
S1130E400895DD980895DE980895DF980895C09870
S1130E500895C1980895C2980895C3980895C498B0
S1130E600895C5980895C6980895C7980895A898B0
S1130E700895A9980895AA980895AB980895AC98F0
S1130E800895AD980895AE980895AF9808959098F0
S1130E900895919808959298089593980895949830
S1130EA0089595980895969808959798089581308F
S1130EB041F028F0823039F0833039F008956BBB6B
S1130EC0089568BB089565BB089562BB0895482FD3
S1130ED0883020F499B3892F90E014C088EF840FF0
S1130EE0883010F426B30BC080EF840F883010F4E0
S1130EF023B305C088EE840F883058F420B330E063
S1130F004770C90102C0959587954A95E2F78170AB
S1130F10089580E00895E199FECF9FBB8EBB6DBB21
S1130F20E29AE19A8FE097E20197F1F700C000009E
S1130F300895E199FECF9FBB8EBBE09A8DB30895CF
S1130F401F920F920FB60F9211242F933F934F933A
S1130F505F936F937F938F939F93AF93BF93EF931D
S1130F60FF93E0917201F0917301309709F00995B4
S1130F70FF91EF91BF91AF919F918F917F916F916D
S1130F805F914F913F912F910F900FBE0F901F9043
S1130F901895813049F018F0823059F00895709313
S1130FA079016093780108957093770160937601D5
S1130FB0089570937501609374010895813039F038
S1130FC018F0823039F008958BB7806405C08BB770
S1130FD0806802C08BB780628BBF0895853009F4A6
S1130FE043C06130B1F028F06230E9F0633059F168
S1130FF00895863031F485B78E7F85BF85B78D7FA0
S113100031C08130D9F585B78B7F85BF85B7877FA0
S113101029C0873019F485B7877F19C0863071F5E8
S113102085B78D7F1CC0873031F485B7886085BF54
S113103085B78B7F17C0863009F585B7826085BF79
S113104085B78E7F0FC0873031F485B7886085BF40
S113105085B7846007C0863089F485B7826085BF10
S113106085B7816085BF0895623029F0633019F433
S113107084B7806402C084B78F7B84BF08951F92B5
S11310800F920FB60F9211242F933F934F935F93B8
S11310906F937F938F939F93AF93BF93EF93FF933C
S11310A0E0917801F0917901309709F00995FF9169
S11310B0EF91BF91AF919F918F917F916F915F91CC
S11310C04F913F912F910F900FBE0F901F90189545
S11310D01F920F920FB60F9211242F933F934F93A9
S11310E05F936F937F938F939F93AF93BF93EF938C
S11310F0FF938091780190917901892B29F0E091F7
S11311007601F09177010995FF91EF91BF91AF912D
S11311109F918F917F916F915F914F913F912F910B
S11311200F900FBE0F901F9018951F920F920FB63D
S11311300F9211242F933F934F935F936F937F9359
S11311408F939F93AF93BF93EF93FF938091780115
S113115090917901892B29F0E0917401F091750146
S11311600995FF91EF91BF91AF919F918F917F91DD
S11311706F915F914F913F912F910F900FBE0F9000
S11311801F901895CF92DF92EF92FF920F931F93C7
S1131190CF93DF938C017B01EC0124968AE0C82E67
S11311A0D12CC701B6010E9420097B01682FCE0112
S11311B00E948B0721970C171D0799F7DF91CF9198
S11311C01F910F91FF90EF90DF90CF900895AF9211
S11311D0BF92CF92DF92EF92FF920F931F93CF9320
S11311E0DF93EC0121966C0125E0C20ED11C88EE40
S11311F0E82E83E0F82E00E010E09AE0A92EB12C4E
S1131200CE010E949907282F2E9DC0012F9D900D7D
S11312101124080F191FC701B5010E9420097B0181
S11312202196CC16DD0661F7C801DF91CF911F919D
S11312300F91FF90EF90DF90CF90BF90AF90089503
S1131240AA1BBB1B51E107C0AA1FBB1FA617B707E8
S113125010F0A61BB70B881F991F5A95A9F7809504
S11312609095BC01CD010895A1E21A2EAA1BBB1BC7
S1131270FD010DC0AA1FBB1FEE1FFF1FA217B3075E
S1131280E407F50720F0A21BB30BE40BF50B661F74
S1131290771F881F991F1A9469F760957095809538
S11312A090959B01AC01BD01CF010895052E97FBDC
S11312B01EF400940E946D0957FD07D00E94340962
S11312C007FC03D04EF40C946D095095409530956D
S11312D021953F4F4F4F5F4F08959095809570959E
S11312E061957F4F8F4F9F4F0895EE0FFF1F05901D
S11312F0F491E02D0994A29FB001B39FC001A39F74
S1131300700D811D1124911DB29F700D811D11243A
S10B1310911D0895F894FFCF2C
S1131318EA03E903E8033738392F3435362A3132FA
S1131328332D63303D2B54656D706572617475722D
S11313386500536D6F6B650046697273742055734D
S1131348656420005365742050617373776F726409
S11313580070617373776F72640046696E65004844
S11313686561740053797374656D206973205368DB
S1131378757420446F776E002A2A456E746572204E
S1131388796F757220506173737761642A2A0057E4
S1131398726F6E672050617373776F726400506C5C
S11313A86561736520577269746520546865204FB8
S11313B86C642050617373776F726400596F752081
S11313C843616E2774204368616E676520546865BD
S11313D82050617373776F726400506C6561736534
S11313E820577269746520546865204E65772050CB
S11313F8617373776F7264000100000000010101DA
S113140800000000020202020000000000000000C8
S10B14180000020200000000C4
S9030000FC
